{
  "contractName": "Farm",
  "abi": [
    {
      "inputs": [],
      "stateMutability": "nonpayable",
      "type": "constructor"
    },
    {
      "anonymous": false,
      "inputs": [
        {
          "indexed": true,
          "internalType": "address",
          "name": "previousOwner",
          "type": "address"
        },
        {
          "indexed": true,
          "internalType": "address",
          "name": "newOwner",
          "type": "address"
        }
      ],
      "name": "OwnershipTransferred",
      "type": "event"
    },
    {
      "anonymous": false,
      "inputs": [
        {
          "indexed": false,
          "internalType": "uint256",
          "name": "plotIdx",
          "type": "uint256"
        },
        {
          "indexed": false,
          "internalType": "int8",
          "name": "cropIdx",
          "type": "int8"
        },
        {
          "indexed": false,
          "internalType": "uint8",
          "name": "progress",
          "type": "uint8"
        },
        {
          "indexed": false,
          "internalType": "uint256",
          "name": "gold",
          "type": "uint256"
        }
      ],
      "name": "PlotUpdated",
      "type": "event"
    },
    {
      "inputs": [
        {
          "internalType": "uint256",
          "name": "",
          "type": "uint256"
        }
      ],
      "name": "crops",
      "outputs": [
        {
          "internalType": "string",
          "name": "name",
          "type": "string"
        },
        {
          "internalType": "uint16",
          "name": "buyPrice",
          "type": "uint16"
        },
        {
          "internalType": "uint16",
          "name": "sellPrice",
          "type": "uint16"
        },
        {
          "internalType": "uint8",
          "name": "difficulty",
          "type": "uint8"
        }
      ],
      "stateMutability": "view",
      "type": "function",
      "constant": true
    },
    {
      "inputs": [],
      "name": "gold",
      "outputs": [
        {
          "internalType": "uint256",
          "name": "",
          "type": "uint256"
        }
      ],
      "stateMutability": "view",
      "type": "function",
      "constant": true
    },
    {
      "inputs": [],
      "name": "owner",
      "outputs": [
        {
          "internalType": "address",
          "name": "",
          "type": "address"
        }
      ],
      "stateMutability": "view",
      "type": "function",
      "constant": true
    },
    {
      "inputs": [
        {
          "internalType": "uint256",
          "name": "",
          "type": "uint256"
        }
      ],
      "name": "plots",
      "outputs": [
        {
          "internalType": "int8",
          "name": "cropIdx",
          "type": "int8"
        },
        {
          "internalType": "uint8",
          "name": "progress",
          "type": "uint8"
        }
      ],
      "stateMutability": "view",
      "type": "function",
      "constant": true
    },
    {
      "inputs": [],
      "name": "renounceOwnership",
      "outputs": [],
      "stateMutability": "nonpayable",
      "type": "function"
    },
    {
      "inputs": [
        {
          "internalType": "address",
          "name": "newOwner",
          "type": "address"
        }
      ],
      "name": "transferOwnership",
      "outputs": [],
      "stateMutability": "nonpayable",
      "type": "function"
    },
    {
      "inputs": [
        {
          "internalType": "string",
          "name": "name",
          "type": "string"
        },
        {
          "internalType": "uint16",
          "name": "buyPrice",
          "type": "uint16"
        },
        {
          "internalType": "uint16",
          "name": "sellPrice",
          "type": "uint16"
        },
        {
          "internalType": "uint8",
          "name": "difficulty",
          "type": "uint8"
        }
      ],
      "name": "addCrop",
      "outputs": [
        {
          "internalType": "uint256",
          "name": "",
          "type": "uint256"
        }
      ],
      "stateMutability": "nonpayable",
      "type": "function"
    },
    {
      "inputs": [
        {
          "internalType": "uint256",
          "name": "idx",
          "type": "uint256"
        },
        {
          "internalType": "string",
          "name": "name",
          "type": "string"
        },
        {
          "internalType": "uint16",
          "name": "buyPrice",
          "type": "uint16"
        },
        {
          "internalType": "uint16",
          "name": "sellPrice",
          "type": "uint16"
        },
        {
          "internalType": "uint8",
          "name": "difficulty",
          "type": "uint8"
        }
      ],
      "name": "updateCrop",
      "outputs": [],
      "stateMutability": "nonpayable",
      "type": "function"
    },
    {
      "inputs": [],
      "name": "getCrops",
      "outputs": [
        {
          "components": [
            {
              "internalType": "string",
              "name": "name",
              "type": "string"
            },
            {
              "internalType": "uint16",
              "name": "buyPrice",
              "type": "uint16"
            },
            {
              "internalType": "uint16",
              "name": "sellPrice",
              "type": "uint16"
            },
            {
              "internalType": "uint8",
              "name": "difficulty",
              "type": "uint8"
            }
          ],
          "internalType": "struct Farm.Crop[]",
          "name": "",
          "type": "tuple[]"
        }
      ],
      "stateMutability": "view",
      "type": "function",
      "constant": true
    },
    {
      "inputs": [],
      "name": "getPlots",
      "outputs": [
        {
          "components": [
            {
              "internalType": "int8",
              "name": "cropIdx",
              "type": "int8"
            },
            {
              "internalType": "uint8",
              "name": "progress",
              "type": "uint8"
            }
          ],
          "internalType": "struct Farm.Plot[]",
          "name": "",
          "type": "tuple[]"
        }
      ],
      "stateMutability": "view",
      "type": "function",
      "constant": true
    },
    {
      "inputs": [
        {
          "internalType": "uint8",
          "name": "cropIdx",
          "type": "uint8"
        },
        {
          "internalType": "uint256",
          "name": "plotIdx",
          "type": "uint256"
        }
      ],
      "name": "plantCrop",
      "outputs": [
        {
          "components": [
            {
              "internalType": "int8",
              "name": "cropIdx",
              "type": "int8"
            },
            {
              "internalType": "uint8",
              "name": "progress",
              "type": "uint8"
            }
          ],
          "internalType": "struct Farm.Plot",
          "name": "",
          "type": "tuple"
        }
      ],
      "stateMutability": "nonpayable",
      "type": "function"
    },
    {
      "inputs": [
        {
          "internalType": "uint256",
          "name": "plotIdx",
          "type": "uint256"
        }
      ],
      "name": "waterPlot",
      "outputs": [
        {
          "internalType": "uint8",
          "name": "",
          "type": "uint8"
        }
      ],
      "stateMutability": "nonpayable",
      "type": "function"
    },
    {
      "inputs": [
        {
          "internalType": "uint256",
          "name": "plotIdx",
          "type": "uint256"
        }
      ],
      "name": "harvestPlot",
      "outputs": [],
      "stateMutability": "nonpayable",
      "type": "function"
    }
  ],
  "bytecode": "0x60806040526101f46003553480156200001757600080fd5b50620000386200002c6200027f60201b60201c565b6200028760201b60201c565b620000846040518060400160405280600e81526020017f426c75656265727279204275736800000000000000000000000000000000000081525060506096600d6200034b60201b60201c565b50620000d16040518060400160405280600b81526020017f4361756c69666c6f776572000000000000000000000000000000000000000000815250605060af600c6200034b60201b60201c565b506200011e6040518060400160405280600781526020017f506172736e6970000000000000000000000000000000000000000000000000008152506014602360046200034b60201b60201c565b506200016c6040518060400160405280600781526020017f50756d706b696e000000000000000000000000000000000000000000000000008152506064610140600d6200034b60201b60201c565b50620001b86040518060400160405280600981526020017f53756e666c6f776572000000000000000000000000000000000000000000000081525060c88060086200034b60201b60201c565b505b600960028054905010156200027957600260405180604001604052807fffffffffffffffffffffffffffffffffffffffffffffffffffffffffffffffff60000b8152602001600060ff168152509080600181540180825580915050600190039060005260206000200160009091909190915060008201518160000160006101000a81548160ff021916908360000b60ff16021790555060208201518160000160016101000a81548160ff021916908360ff1602179055505050620001ba565b6200070d565b600033905090565b60008060009054906101000a900473ffffffffffffffffffffffffffffffffffffffff169050816000806101000a81548173ffffffffffffffffffffffffffffffffffffffff021916908373ffffffffffffffffffffffffffffffffffffffff1602179055508173ffffffffffffffffffffffffffffffffffffffff168173ffffffffffffffffffffffffffffffffffffffff167f8be0079c531659141344cd1fd0a4f28419497f9722a3daafe3b4186f6b6457e060405160405180910390a35050565b60006200035d6200027f60201b60201c565b73ffffffffffffffffffffffffffffffffffffffff1662000383620004d860201b60201c565b73ffffffffffffffffffffffffffffffffffffffff1614620003dc576040517f08c379a0000000000000000000000000000000000000000000000000000000008152600401620003d39062000612565b60405180910390fd5b600160405180608001604052808781526020018661ffff1681526020018561ffff1681526020018460ff16815250908060018154018082558091505060019003906000526020600020906002020160009091909190915060008201518160000190805190602001906200045192919062000501565b5060208201518160010160006101000a81548161ffff021916908361ffff16021790555060408201518160010160026101000a81548161ffff021916908361ffff16021790555060608201518160010160046101000a81548160ff021916908360ff160217905550505060018080549050620004ce91906200066d565b9050949350505050565b60008060009054906101000a900473ffffffffffffffffffffffffffffffffffffffff16905090565b8280546200050f90620006d7565b90600052602060002090601f0160209004810192826200053357600085556200057f565b82601f106200054e57805160ff19168380011785556200057f565b828001600101855582156200057f579182015b828111156200057e57825182559160200191906001019062000561565b5b5090506200058e919062000592565b5090565b5b80821115620005ad57600081600090555060010162000593565b5090565b600082825260208201905092915050565b7f4f776e61626c653a2063616c6c6572206973206e6f7420746865206f776e6572600082015250565b6000620005fa602083620005b1565b91506200060782620005c2565b602082019050919050565b600060208201905081810360008301526200062d81620005eb565b9050919050565b6000819050919050565b7f4e487b7100000000000000000000000000000000000000000000000000000000600052601160045260246000fd5b60006200067a8262000634565b9150620006878362000634565b9250828210156200069d576200069c6200063e565b5b828203905092915050565b7f4e487b7100000000000000000000000000000000000000000000000000000000600052602260045260246000fd5b60006002820490506001821680620006f057607f821691505b60208210811415620007075762000706620006a8565b5b50919050565b6121a7806200071d6000396000f3fe608060405234801561001057600080fd5b50600436106100cf5760003560e01c8063715018a61161008c578063a63d9b9011610066578063a63d9b9014610216578063f2fde38b14610246578063f9cf80a914610262578063fbec6f2114610280576100cf565b8063715018a6146101d2578063868e0711146101dc5780638da5cb5b146101f8576100cf565b80630530cdc5146100d45780634c57cfc6146101045780635f073f3a1461013457806361bf49ee1461015257806370c9f1a514610183578063712b5ad3146101b6575b600080fd5b6100ee60048036038101906100e99190611381565b61029e565b6040516100fb91906113ca565b60405180910390f35b61011e60048036038101906101199190611411565b6103b0565b60405161012b91906114ab565b60405180910390f35b61013c6106a3565b60405161014991906116a1565b60405180910390f35b61016c60048036038101906101679190611381565b6107f1565b60405161017a9291906116d2565b60405180910390f35b61019d60048036038101906101989190611381565b61083b565b6040516101ad9493929190611754565b60405180910390f35b6101d060048036038101906101cb9190611381565b61092c565b005b6101da610a6c565b005b6101f660048036038101906101f19190611901565b610af4565b005b610200610c12565b60405161020d91906119d9565b60405180910390f35b610230600480360381019061022b91906119f4565b610c3b565b60405161023d9190611a86565b60405180910390f35b610260600480360381019061025b9190611acd565b610db1565b005b61026a610ea9565b6040516102779190611bd8565b60405180910390f35b610288610f3e565b6040516102959190611a86565b60405180910390f35b60008060006102ac84610f44565b91509150806060015160ff168260000160019054906101000a900460ff1660ff161061030d576040517f08c379a000000000000000000000000000000000000000000000000000000000815260040161030490611c6c565b60405180910390fd5b60018260000160018282829054906101000a900460ff1661032e9190611cbb565b92506101000a81548160ff021916908360ff16021790555061039584836040518060400160405290816000820160009054906101000a900460000b60000b60000b81526020016000820160019054906101000a900460ff1660ff1660ff168152505061112b565b8160000160019054906101000a900460ff1692505050919050565b6103b8611242565b600060018460ff16815481106103d1576103d0611cf2565b5b90600052602060002090600202016040518060800160405290816000820180546103fa90611d50565b80601f016020809104026020016040519081016040528092919081815260200182805461042690611d50565b80156104735780601f1061044857610100808354040283529160200191610473565b820191906000526020600020905b81548152906001019060200180831161045657829003601f168201915b505050505081526020016001820160009054906101000a900461ffff1661ffff1661ffff1681526020016001820160029054906101000a900461ffff1661ffff1661ffff1681526020016001820160049054906101000a900460ff1660ff1660ff168152505090506000600284815481106104f1576104f0611cf2565b5b906000526020600020019050816020015161ffff16600354101561054a576040517f08c379a000000000000000000000000000000000000000000000000000000000815260040161054190611dce565b60405180910390fd5b7fffffffffffffffffffffffffffffffffffffffffffffffffffffffffffffffff60000b8160000160009054906101000a900460000b60000b146105c3576040517f08c379a00000000000000000000000000000000000000000000000000000000081526004016105ba90611e60565b60405180910390fd5b816020015161ffff16600360008282546105dd9190611e80565b92505081905550848160000160006101000a81548160ff021916908360000b60ff16021790555061065384826040518060400160405290816000820160009054906101000a900460000b60000b60000b81526020016000820160019054906101000a900460ff1660ff1660ff168152505061112b565b806040518060400160405290816000820160009054906101000a900460000b60000b60000b81526020016000820160019054906101000a900460ff1660ff1660ff16815250509250505092915050565b60606001805480602002602001604051908101604052809291908181526020016000905b828210156107e857838290600052602060002090600202016040518060800160405290816000820180546106fa90611d50565b80601f016020809104026020016040519081016040528092919081815260200182805461072690611d50565b80156107735780601f1061074857610100808354040283529160200191610773565b820191906000526020600020905b81548152906001019060200180831161075657829003601f168201915b505050505081526020016001820160009054906101000a900461ffff1661ffff1661ffff1681526020016001820160029054906101000a900461ffff1661ffff1661ffff1681526020016001820160049054906101000a900460ff1660ff1660ff1681525050815260200190600101906106c7565b50505050905090565b6002818154811061080157600080fd5b906000526020600020016000915090508060000160009054906101000a900460000b908060000160019054906101000a900460ff16905082565b6001818154811061084b57600080fd5b906000526020600020906002020160009150905080600001805461086e90611d50565b80601f016020809104026020016040519081016040528092919081815260200182805461089a90611d50565b80156108e75780601f106108bc576101008083540402835291602001916108e7565b820191906000526020600020905b8154815290600101906020018083116108ca57829003601f168201915b5050505050908060010160009054906101000a900461ffff16908060010160029054906101000a900461ffff16908060010160049054906101000a900460ff16905084565b60008061093883610f44565b91509150806060015160ff168260000160019054906101000a900460ff1660ff1614610999576040517f08c379a000000000000000000000000000000000000000000000000000000000815260040161099090611f26565b60405180910390fd5b7fffffffffffffffffffffffffffffffffffffffffffffffffffffffffffffffff8260000160006101000a81548160ff021916908360000b60ff16021790555060008260000160016101000a81548160ff021916908360ff160217905550806040015161ffff1660036000828254610a119190611f46565b92505081905550610a6783836040518060400160405290816000820160009054906101000a900460000b60000b60000b81526020016000820160019054906101000a900460ff1660ff1660ff168152505061112b565b505050565b610a74611176565b73ffffffffffffffffffffffffffffffffffffffff16610a92610c12565b73ffffffffffffffffffffffffffffffffffffffff1614610ae8576040517f08c379a0000000000000000000000000000000000000000000000000000000008152600401610adf90611fe8565b60405180910390fd5b610af2600061117e565b565b610afc611176565b73ffffffffffffffffffffffffffffffffffffffff16610b1a610c12565b73ffffffffffffffffffffffffffffffffffffffff1614610b70576040517f08c379a0000000000000000000000000000000000000000000000000000000008152600401610b6790611fe8565b60405180910390fd5b600060018681548110610b8657610b85611cf2565b5b9060005260206000209060020201905084816000019080519060200190610bae929190611261565b50838160010160006101000a81548161ffff021916908361ffff160217905550828160010160026101000a81548161ffff021916908361ffff160217905550818160010160046101000a81548160ff021916908360ff160217905550505050505050565b60008060009054906101000a900473ffffffffffffffffffffffffffffffffffffffff16905090565b6000610c45611176565b73ffffffffffffffffffffffffffffffffffffffff16610c63610c12565b73ffffffffffffffffffffffffffffffffffffffff1614610cb9576040517f08c379a0000000000000000000000000000000000000000000000000000000008152600401610cb090611fe8565b60405180910390fd5b600160405180608001604052808781526020018661ffff1681526020018561ffff1681526020018460ff1681525090806001815401808255809150506001900390600052602060002090600202016000909190919091506000820151816000019080519060200190610d2c929190611261565b5060208201518160010160006101000a81548161ffff021916908361ffff16021790555060408201518160010160026101000a81548161ffff021916908361ffff16021790555060608201518160010160046101000a81548160ff021916908360ff160217905550505060018080549050610da79190611e80565b9050949350505050565b610db9611176565b73ffffffffffffffffffffffffffffffffffffffff16610dd7610c12565b73ffffffffffffffffffffffffffffffffffffffff1614610e2d576040517f08c379a0000000000000000000000000000000000000000000000000000000008152600401610e2490611fe8565b60405180910390fd5b600073ffffffffffffffffffffffffffffffffffffffff168173ffffffffffffffffffffffffffffffffffffffff161415610e9d576040517f08c379a0000000000000000000000000000000000000000000000000000000008152600401610e949061207a565b60405180910390fd5b610ea68161117e565b50565b60606002805480602002602001604051908101604052809291908181526020016000905b82821015610f35578382906000526020600020016040518060400160405290816000820160009054906101000a900460000b60000b60000b81526020016000820160019054906101000a900460ff1660ff1660ff168152505081526020019060010190610ecd565b50505050905090565b60035481565b6000610f4e6112e7565b600060028481548110610f6457610f63611cf2565b5b906000526020600020019050600060018260000160009054906101000a900460000b60ff1681548110610f9a57610f99611cf2565b5b9060005260206000209060020201604051806080016040529081600082018054610fc390611d50565b80601f0160208091040260200160405190810160405280929190818152602001828054610fef90611d50565b801561103c5780601f106110115761010080835404028352916020019161103c565b820191906000526020600020905b81548152906001019060200180831161101f57829003601f168201915b505050505081526020016001820160009054906101000a900461ffff1661ffff1661ffff1681526020016001820160029054906101000a900461ffff1661ffff1661ffff1681526020016001820160049054906101000a900460ff1660ff1660ff168152505090507fffffffffffffffffffffffffffffffffffffffffffffffffffffffffffffffff60000b8260000160009054906101000a900460000b60000b141561111e576040517f08c379a00000000000000000000000000000000000000000000000000000000081526004016111159061210c565b60405180910390fd5b8181935093505050915091565b7f6b175222f5f40094911216caa24425c9533a97061dcb1feaeb3083760ba0b8e6828260000151836020015160035460405161116a949392919061212c565b60405180910390a15050565b600033905090565b60008060009054906101000a900473ffffffffffffffffffffffffffffffffffffffff169050816000806101000a81548173ffffffffffffffffffffffffffffffffffffffff021916908373ffffffffffffffffffffffffffffffffffffffff1602179055508173ffffffffffffffffffffffffffffffffffffffff168173ffffffffffffffffffffffffffffffffffffffff167f8be0079c531659141344cd1fd0a4f28419497f9722a3daafe3b4186f6b6457e060405160405180910390a35050565b60405180604001604052806000800b8152602001600060ff1681525090565b82805461126d90611d50565b90600052602060002090601f01602090048101928261128f57600085556112d6565b82601f106112a857805160ff19168380011785556112d6565b828001600101855582156112d6579182015b828111156112d55782518255916020019190600101906112ba565b5b5090506112e3919061131a565b5090565b604051806080016040528060608152602001600061ffff168152602001600061ffff168152602001600060ff1681525090565b5b8082111561133357600081600090555060010161131b565b5090565b6000604051905090565b600080fd5b600080fd5b6000819050919050565b61135e8161134b565b811461136957600080fd5b50565b60008135905061137b81611355565b92915050565b60006020828403121561139757611396611341565b5b60006113a58482850161136c565b91505092915050565b600060ff82169050919050565b6113c4816113ae565b82525050565b60006020820190506113df60008301846113bb565b92915050565b6113ee816113ae565b81146113f957600080fd5b50565b60008135905061140b816113e5565b92915050565b6000806040838503121561142857611427611341565b5b6000611436858286016113fc565b92505060206114478582860161136c565b9150509250929050565b60008160000b9050919050565b61146781611451565b82525050565b611476816113ae565b82525050565b604082016000820151611492600085018261145e565b5060208201516114a5602085018261146d565b50505050565b60006040820190506114c0600083018461147c565b92915050565b600081519050919050565b600082825260208201905092915050565b6000819050602082019050919050565b600081519050919050565b600082825260208201905092915050565b60005b8381101561152c578082015181840152602081019050611511565b8381111561153b576000848401525b50505050565b6000601f19601f8301169050919050565b600061155d826114f2565b61156781856114fd565b935061157781856020860161150e565b61158081611541565b840191505092915050565b600061ffff82169050919050565b6115a28161158b565b82525050565b600060808301600083015184820360008601526115c58282611552565b91505060208301516115da6020860182611599565b5060408301516115ed6040860182611599565b506060830151611600606086018261146d565b508091505092915050565b600061161783836115a8565b905092915050565b6000602082019050919050565b6000611637826114c6565b61164181856114d1565b935083602082028501611653856114e2565b8060005b8581101561168f5784840389528151611670858261160b565b945061167b8361161f565b925060208a01995050600181019050611657565b50829750879550505050505092915050565b600060208201905081810360008301526116bb818461162c565b905092915050565b6116cc81611451565b82525050565b60006040820190506116e760008301856116c3565b6116f460208301846113bb565b9392505050565b600082825260208201905092915050565b6000611717826114f2565b61172181856116fb565b935061173181856020860161150e565b61173a81611541565b840191505092915050565b61174e8161158b565b82525050565b6000608082019050818103600083015261176e818761170c565b905061177d6020830186611745565b61178a6040830185611745565b61179760608301846113bb565b95945050505050565b600080fd5b600080fd5b7f4e487b7100000000000000000000000000000000000000000000000000000000600052604160045260246000fd5b6117e282611541565b810181811067ffffffffffffffff82111715611801576118006117aa565b5b80604052505050565b6000611814611337565b905061182082826117d9565b919050565b600067ffffffffffffffff8211156118405761183f6117aa565b5b61184982611541565b9050602081019050919050565b82818337600083830152505050565b600061187861187384611825565b61180a565b905082815260208101848484011115611894576118936117a5565b5b61189f848285611856565b509392505050565b600082601f8301126118bc576118bb6117a0565b5b81356118cc848260208601611865565b91505092915050565b6118de8161158b565b81146118e957600080fd5b50565b6000813590506118fb816118d5565b92915050565b600080600080600060a0868803121561191d5761191c611341565b5b600061192b8882890161136c565b955050602086013567ffffffffffffffff81111561194c5761194b611346565b5b611958888289016118a7565b9450506040611969888289016118ec565b935050606061197a888289016118ec565b925050608061198b888289016113fc565b9150509295509295909350565b600073ffffffffffffffffffffffffffffffffffffffff82169050919050565b60006119c382611998565b9050919050565b6119d3816119b8565b82525050565b60006020820190506119ee60008301846119ca565b92915050565b60008060008060808587031215611a0e57611a0d611341565b5b600085013567ffffffffffffffff811115611a2c57611a2b611346565b5b611a38878288016118a7565b9450506020611a49878288016118ec565b9350506040611a5a878288016118ec565b9250506060611a6b878288016113fc565b91505092959194509250565b611a808161134b565b82525050565b6000602082019050611a9b6000830184611a77565b92915050565b611aaa816119b8565b8114611ab557600080fd5b50565b600081359050611ac781611aa1565b92915050565b600060208284031215611ae357611ae2611341565b5b6000611af184828501611ab8565b91505092915050565b600081519050919050565b600082825260208201905092915050565b6000819050602082019050919050565b604082016000820151611b3c600085018261145e565b506020820151611b4f602085018261146d565b50505050565b6000611b618383611b26565b60408301905092915050565b6000602082019050919050565b6000611b8582611afa565b611b8f8185611b05565b9350611b9a83611b16565b8060005b83811015611bcb578151611bb28882611b55565b9750611bbd83611b6d565b925050600181019050611b9e565b5085935050505092915050565b60006020820190508181036000830152611bf28184611b7a565b905092915050565b7f546861742063726f7020697320616c726561647920726561647920666f72206860008201527f6172766573742e00000000000000000000000000000000000000000000000000602082015250565b6000611c566027836116fb565b9150611c6182611bfa565b604082019050919050565b60006020820190508181036000830152611c8581611c49565b9050919050565b7f4e487b7100000000000000000000000000000000000000000000000000000000600052601160045260246000fd5b6000611cc6826113ae565b9150611cd1836113ae565b92508260ff03821115611ce757611ce6611c8c565b5b828201905092915050565b7f4e487b7100000000000000000000000000000000000000000000000000000000600052603260045260246000fd5b7f4e487b7100000000000000000000000000000000000000000000000000000000600052602260045260246000fd5b60006002820490506001821680611d6857607f821691505b60208210811415611d7c57611d7b611d21565b5b50919050565b7f596f7520646f6e2774206861766520656e6f75676820676f6c642e0000000000600082015250565b6000611db8601b836116fb565b9150611dc382611d82565b602082019050919050565b60006020820190508181036000830152611de781611dab565b9050919050565b7f596f7520616c7265616479206861766520612063726f7020706c616e7465642060008201527f74686572652e0000000000000000000000000000000000000000000000000000602082015250565b6000611e4a6026836116fb565b9150611e5582611dee565b604082019050919050565b60006020820190508181036000830152611e7981611e3d565b9050919050565b6000611e8b8261134b565b9150611e968361134b565b925082821015611ea957611ea8611c8c565b5b828203905092915050565b7f546861742063726f702069736e277420726561647920746f206265206861727660008201527f6573746564207965742e00000000000000000000000000000000000000000000602082015250565b6000611f10602a836116fb565b9150611f1b82611eb4565b604082019050919050565b60006020820190508181036000830152611f3f81611f03565b9050919050565b6000611f518261134b565b9150611f5c8361134b565b9250827fffffffffffffffffffffffffffffffffffffffffffffffffffffffffffffffff03821115611f9157611f90611c8c565b5b828201905092915050565b7f4f776e61626c653a2063616c6c6572206973206e6f7420746865206f776e6572600082015250565b6000611fd26020836116fb565b9150611fdd82611f9c565b602082019050919050565b6000602082019050818103600083015261200181611fc5565b9050919050565b7f4f776e61626c653a206e6577206f776e657220697320746865207a65726f206160008201527f6464726573730000000000000000000000000000000000000000000000000000602082015250565b60006120646026836116fb565b915061206f82612008565b604082019050919050565b6000602082019050818103600083015261209381612057565b9050919050565b7f596f7520646f6e2774206861766520612063726f7020706c616e74656420746860008201527f6572652e00000000000000000000000000000000000000000000000000000000602082015250565b60006120f66024836116fb565b91506121018261209a565b604082019050919050565b60006020820190508181036000830152612125816120e9565b9050919050565b60006080820190506121416000830187611a77565b61214e60208301866116c3565b61215b60408301856113bb565b6121686060830184611a77565b9594505050505056fea264697066735822122091abc5e4b5f440a3d07924a7a1da820a6121b7fdf944b0d394e5c37f0fd5128364736f6c634300080a0033",
  "immutableReferences": {},
  "source": "// SPDX-License-Identifier: MIT\npragma solidity >=0.4.22 <0.9.0;\n\nimport '@openzeppelin/contracts/access/Ownable.sol';\n\nint8 constant NO_CROP = -1;\n\ncontract Farm is Ownable {\n    Crop[] public crops;\n    Plot[] public plots;\n    uint public gold = 500;\n\n    struct Crop {\n        string name;\n        uint16 buyPrice;\n        uint16 sellPrice;\n        uint8 difficulty;\n    }\n\n    struct Plot {\n        int8 cropIdx;\n        uint8 progress;\n    }\n\n    event PlotUpdated (uint plotIdx, int8 cropIdx, uint8 progress, uint gold);\n\n    constructor() {\n        addCrop('Blueberry Bush', 80, 150, 13);\n        addCrop('Cauliflower', 80, 175, 12);\n        addCrop('Parsnip', 20, 35, 4);\n        addCrop('Pumpkin', 100, 320, 13);\n        addCrop('Sunflower', 200, 200, 8);\n\n        while(plots.length < 9) {\n            plots.push(Plot(NO_CROP, 0));\n        }\n    }\n\n    function addCrop(string memory name, uint16 buyPrice, uint16 sellPrice, uint8 difficulty) public onlyOwner returns (uint) {\n        crops.push(Crop(name, buyPrice, sellPrice, difficulty));\n        return crops.length - 1;\n    }\n\n    function updateCrop(uint idx, string memory name, uint16 buyPrice, uint16 sellPrice, uint8 difficulty) public onlyOwner {\n        Crop storage crop = crops[idx];\n        crop.name = name;\n        crop.buyPrice = buyPrice;\n        crop.sellPrice = sellPrice;\n        crop.difficulty = difficulty;\n    }\n\n    function getCrops() public view returns (Crop[] memory) {\n        return crops;\n    }\n\n    function getPlots() public view returns (Plot[] memory) {\n        return plots;\n    }\n\n    function getPlantedPlot(uint plotIdx) private view returns (Plot storage, Crop memory){\n        Plot storage plot = plots[plotIdx];\n        Crop memory crop = crops[uint8(plot.cropIdx)];\n        require(plot.cropIdx != NO_CROP, \"You don't have a crop planted there.\");\n        return (plot, crop);\n    }\n\n    function emitPlot(uint plotIdx, Plot memory plot) private {\n        emit PlotUpdated(plotIdx, plot.cropIdx, plot.progress, gold);\n    }\n\n    function plantCrop(uint8 cropIdx, uint plotIdx) public returns (Plot memory) {\n        // Ensure we have enough gold and there isn't already a crop in this plot\n        Crop memory crop = crops[cropIdx];\n        Plot storage plot = plots[plotIdx];\n        require(gold >= crop.buyPrice, \"You don't have enough gold.\");\n        require(plot.cropIdx == NO_CROP, \"You already have a crop planted there.\");\n\n        // Charge for the crop, and plant it in the plot\n        gold -= crop.buyPrice;\n        plot.cropIdx = int8(cropIdx);\n        emitPlot(plotIdx, plot);\n        return plot;\n    }\n\n    function waterPlot(uint plotIdx) public returns (uint8) {\n        (Plot storage plot, Crop memory crop) = getPlantedPlot(plotIdx);\n        require(plot.progress < crop.difficulty, \"That crop is already ready for harvest.\");\n        plot.progress += 1;\n        emitPlot(plotIdx, plot);\n        return plot.progress;\n    }\n\n    function harvestPlot(uint plotIdx) public {\n        (Plot storage plot, Crop memory crop) = getPlantedPlot(plotIdx);\n        require(plot.progress == crop.difficulty, \"That crop isn't ready to be harvested yet.\");\n        plot.cropIdx = NO_CROP;\n        plot.progress = 0;\n        gold += crop.sellPrice;\n        emitPlot(plotIdx, plot);\n    }\n}\n",
  "sourcePath": "/Users/luke/Developer/Crypto/starblock-valley/backend/contracts/Farm.sol",
  "compiler": {
    "name": "solc",
    "version": "0.8.10+commit.fc410830.Emscripten.clang"
  },
  "schemaVersion": "3.4.3",
  "updatedAt": "2021-11-30T19:01:48.344Z",
  "networkType": "ethereum",
  "devdoc": {
    "kind": "dev",
    "methods": {
      "owner()": {
        "details": "Returns the address of the current owner."
      },
      "renounceOwnership()": {
        "details": "Leaves the contract without owner. It will not be possible to call `onlyOwner` functions anymore. Can only be called by the current owner. NOTE: Renouncing ownership will leave the contract without an owner, thereby removing any functionality that is only available to the owner."
      },
      "transferOwnership(address)": {
        "details": "Transfers ownership of the contract to a new account (`newOwner`). Can only be called by the current owner."
      }
    },
    "version": 1
  },
  "userdoc": {
    "kind": "user",
    "methods": {},
    "version": 1
  }
}